:03000000020100FA
:0C010000787FE4F6D8FD758120020147ED
:02020100C1003A
:0401E1005390EF2226
:0401E5004390102211
:0401E9005380EF222E
:0401ED004380102219
:0401F10053D8FD22C0
:0401F50043D80222C7
:0401F90053907F227E
:0401FD004390802289
:10018C00759AFF759BFF7591FF7592FF75A1FF75B1
:10019C00A2FF75D9FF75DAFF7580FF7590FF75D8D2
:0E01AC00FF75A0FFD2AF43CF1075EF01002208
:1001BA00438F80759D88759E0343A901759F2222EE
:03003B000201CAF5
:0F01CA00C0E0E59D30E605539DBFD200D0E03286
:0801D90012018C1201BA80FE34
:10010C000201D9E493A3F8E493A34003F68001F22F
:10011C0008DFF48029E493A3F85407240CC8C333F4
:10012C00C4540F4420C8834004F456800146F6DFC3
:10013C00E4800B0102040810204080900201E47E50
:10014C00019360BCA3FF543F30E509541FFEE493B8
:10015C00A360010ECF54C025E060A840B8E493A37F
:10016C00FAE493A3F8E493A3C8C582C8CAC583CAAA
:10017C00F0A3C8C582C8CAC583CADFE9DEE780BE62
:0102030000FA
:00000001FF
